S0150000537465707065725F61343938382E737265638F
S113000045C000004BC0000049C0000047C00000CC
S113001045C0000043C0000041C000003FC00000D4
S11300203DC000003BC0000039C0000037C00000E4
S113003035C0000033C0000031C000002FC00000F4
S11300402DC000002BC0000029C0000027C0000004
S113005025C0000023C0000021C000001FC0000014
S11300601DC000001BC0000019C0000017C0000024
S113007015C0000013C0000011C000000FC0000034
S11300800DC000000BC0000009C0000011241FBEF9
S1130090CFEFD0E1DEBFCDBF42D0AFC0B1CF2BB3E5
S11300A01BBAD99A28EC30E0DC0170D028E631E0A4
S11300B040E050E04FD01216130684F480E090E044
S11300C0D89AE3E3F7E03197F1F7D898E3E3F7E060
S11300D03197F1F701968217930794F308952BB3A0
S11300E01BBAD99828EC30E0DC0150D028E631E086
S11300F040E050E02FD01216130684F480E090E024
S1130100D89AE3E3F7E03197F1F7D898E3E3F7E01F
S11301103197F1F701968217930794F308958FEFBF
S11301208ABB8AE590E0BBDF2FEF8FEF9CE2215082
S113013080409040E1F700C000008AE590E0CFDF06
S11301402FEF8FEF9CE2215080409040E1F700C0F8
S11301500000E7CF052E97FB16F400940FD057FD4F
S113016005D01AD007FC02D046F408C0509540953B
S1130170309521953F4F4F4F5F4F0895909580954F
S1130180709561957F4F8F4F9F4F089527D0B7FF8C
S11301900895821B930B0895A1E21A2EAA1BBB1B80
S11301A0FD010DC0AA1FBB1FEE1FFF1FA217B3073F
S11301B0E407F50720F0A21BB30BE40BF50B661F55
S11301C0771F881F991F1A9469F760957095809519
S11301D090959B01AC01BD01CF010895A29FB00190
S11301E0B39FC001A39F700D811D1124911DB29F67
S11101F0700D811D1124911D0895F894FFCF08
S9030000FC
