S01300004469676974616C526561642E73726563D7
S113000071C0000079C0000077C0000075C0000016
S113001073C0000071C000006FC000006DC000001C
S11300206BC0000069C0000067C0000065C000002C
S113003063C0000061C000005FC000005DC000003C
S11300405BC0000059C0000057C0000055C000004C
S113005053C0000051C000004FC000004DC000005C
S11300604BC0000049C0000047C0000045C000006C
S113007043C0000041C000003FC000003DC000007C
S11300803BC0000039C0000037C0000035C000008C
S113009033C0000031C000002FC000002DC000009C
S11300A02BC0000029C0000027C0000025C00000AC
S11300B023C0000021C000001FC000001DC00000BC
S11300C01BC0000019C0000017C0000015C00000CC
S11300D013C0000011C000000FC000000DC00000DC
S11300E00BC0000011241FBECFEFD1E2DEBFCDBF95
S11300F000E00CBF24D026C083CF189B03C081E04E
S113010082B90895199B03C082E082B908951A9BAD
S113011003C084E082B9089512B80895489903C0D1
S113012081E088B90895499903C082E088B90895A7
S11301304A9903C084E088B9089518B80895DDDFAA
S10B0140EDDFFDCFF894FFCFC1
S9030000FC
