:1000000071C000008EC000008CC000008AC00000DB
:1000100088C0000086C0000084C0000082C00000CC
:1000200080C000007EC000007CC000007AC00000DC
:1000300078C0000076C0000074C0000072C00000EC
:1000400070C000006EC000006CC000006AC00000FC
:1000500068C0000066C0000064C0000062C000000C
:1000600060C000005EC000005CC000005AC000001C
:1000700058C0000056C0000054C0000052C000002C
:1000800050C000004EC000004CC000004AC000003C
:1000900048C0000046C0000044C0000042C000004C
:1000A00040C000003EC000003CC000003AC000005C
:1000B00038C0000036C0000034C0000032C000006C
:1000C00030C000002EC000002CC000002AC000007C
:1000D00028C0000026C00000BBC1000022C00000F4
:1000E00020C0000011241FBECFEFD1E2DEBFCDBF84
:1000F00000E00CBF12E0A0E0B2E0EEEAF5E000E0C4
:100100000BBF02C007900D92A831B107D9F722E0CA
:10011000A8E1B2E001C01D92A234B207E1F791D18B
:1001200044C26ECF4F925F926F927F928F929F9256
:10013000AF92BF92CF92DF92EF92FF92CF93DF9375
:10014000CDB7DEB728970FB6F894DEBF0FBECDBF90
:10015000C0900002D090010226010D2C000C660810
:100160007708D194C194D1080D2C000CEE08FF083B
:100170008090060290900702092C000CAA08BB0888
:10018000D301C2018C199D09AE09BF098D839E83DD
:10019000AF83B887E8E0F2E0A081B0E02D813E8136
:1001A0004F815885C7D1A5019401A8D1DA01C901B1
:1001B0008C0D9D1DAE1DBF1D90933D0280933C0292
:1001C000D701C60184199509A609B70989839A83BD
:1001D000AB83BC83A0910902B0E029813A814B81B5
:1001E0005C81A8D1A501940189D1DA01C901840DEE
:1001F000951DA61DB71D90933F0280933E02A091CE
:100200000A02B0E02D813E814F81588593D1A5012E
:10021000940174D1C20ED31EE41EF51ED092390291
:10022000C0923802A0910B02B0E029813A814B8143
:100230005C8180D1A501940161D1DA01C901840DED
:10024000951DA61DB71D90933B0280933A028091A5
:10025000340290913502019739F485B1809585B9C2
:10026000109235021092340280913602909137023A
:10027000019739F485B1809585B9109237021092B3
:10028000360280912C0290912D02019739F485B1AC
:10029000809585B910922D0210922C028091300227
:1002A00090913102019739F485B1809585B910920A
:1002B00031021092300280912E0290912F0201970C
:1002C00039F485B1809585B910922F0210922E02D3
:1002D0008091320290913302019739F485B1809573
:1002E00085B91092330210923202809126029091C9
:1002F0002702019739F485B1809585B910922702BC
:100300001092260280912A0290912B02019739F4D3
:1003100085B1809585B910922B0210922A028091A6
:10032000240290912502019739F485B1809585B911
:1003300010922502109224028091280290912902A5
:10034000019739F485B1809585B9109229021092F0
:1003500028028091180290911902019739F485B111
:10036000809585B9109219021092180280911A0294
:1003700090911B02019739F485B1809585B910924F
:100380001B0210921A0280911C0290911D0201978B
:1003900039F485B1809585B910921D0210921C0226
:1003A00080911E0290911F02019739F485B18095CA
:1003B00085B910921F0210921E0280912002909126
:1003C0002102019739F485B1809585B910922102F7
:1003D000109220028091220290912302019739F419
:1003E00085B1809585B91092230210922202289639
:1003F0000FB6F894DEBF0FBECDBFDF91CF91FF9057
:10040000EF90DF90CF90BF90AF909F908F907F90B4
:100410006F905F904F90089580E480937C0087E810
:1004200080937A0010927B000895109235018FE539
:100430008093340188E98093310186E08093320112
:1004400008958FEF84B97894E7DFEFDF6BDEFECF9E
:100450001F920F920FB60F9211240BB60F922F938B
:100460003F934F935F938F939F93AF93BF93EF937C
:10047000FF9381E090E09093410280934002E091ED
:1004800036018E2F90E09093050280930402AC0118
:100490009C01295C31092633310598F490930302BD
:1004A00080930202875E91094097B8F4E75EF0E01E
:1004B000EE0FFF1FE85EFD4F81E090E091838083A7
:1004C0000CC0493C510548F4A0910202A95CA0313E
:1004D00020F4B0E0A85FBD4FEC93FF91EF91BF9186
:1004E000AF919F918F915F914F913F912F910F907D
:1004F0000BBE0F900FBE0F901F901895052E97FB07
:1005000016F400940FD057FD05D01ED007FC02D082
:1005100046F408C050954095309521953F4F4F4F78
:100520005F4F089590958095709561957F4F8F4F9F
:100530009F4F08952BD0A59F900DB49F900DA49F21
:10054000800D911D11240895A1E21A2EAA1BBB1B38
:10055000FD010DC0AA1FBB1FEE1FFF1FA217B3078F
:10056000E407F50720F0A21BB30BE40BF50B661FA5
:10057000771F881F991F1A9469F760957095809569
:1005800090959B01AC01BD01CF010895A29FB001E0
:10059000B39FC001A39F700D811D1124911DB29FB7
:0E05A000700D811D1124911D0895F894FFCF58
:1005AE00FF00FF00FF00C800646464646464646458
:0805BE00646464646464646415
:00000001FF
