S012000074696D65725F7461736B2E73726563DF
S113000071C0000081C000007FC000007DC00000FE
S11300107BC0000079C0000077C0000075C00000FC
S113002073C0000071C000006FC000006DC000000C
S11300306BC0000069C0000067C0000065C000001C
S113004063C00000A0C000005FC000005DC00000ED
S11300505BC0000059C0000057C0000055C000003C
S113006053C0000051C000004FC000004DC000004C
S11300704BC0000049C0000047C0000045C000005C
S113008043C0000041C000003FC000003DC000006C
S11300903BC0000039C0000037C0000035C000007C
S11300A033C0000031C000002FC000002DC000008C
S11300B02BC0000029C0000027C0000025C000009C
S11300C023C0000021C000001FC000001DC00000AC
S11300D01BC0000019C0000017C0000015C00000BC
S11300E013C0000011241FBECFEFD1E2DEBFCDBF8D
S11300F000E00CBF22E0A0E0B2E001C01D92A630F7
S1130100B207E1F730D06DC07BCF8FEF809307014A
S113011087B911B80895E0E8F0E0808180618083B8
S1130120E1E8F0E080818D608083EFE6F0E080819B
S11301308260808380E498E39093890080938800B0
S11301400895E9DF109205021092040280910002E2
S113015090910102059731F488E090E090930502B4
S11301608093040208957894D0DF08E011E0C4E09D
S1130170D2E0E7DF8091000290910102F8018083D0
S1130180888188B9F6CF1F920F920FB60F9211246F
S11301908F939F9300990AC0809102029091030269
S11301A00196909303028093020208C01092030206
S11301B01092020210920102109200028091020237
S11301C090910302059734F085E090E0909301024A
S11301D0809300029F918F910F900FBE0F901F90FC
S10901E01895F894FFCF0E
S9030000FC
