:1000000071C00000B4C0000097C000007DC00000B7
:100010007BC0000079C0000077C0000075C0000000
:1000200073C0000071C000006FC000006DC0000010
:100030006BC0000069C0000067C0000065C0000020
:1000400063C0000061C000005FC000005DC0000030
:100050005BC0000059C0000057C0000055C0000040
:1000600053C0000051C000004FC000004DC0000050
:100070004BC0000049C0000047C0000045C0000060
:1000800043C0000041C000003FC000003DC0000070
:100090003BC0000039C0000037C0000035C0000080
:1000A00033C0000031C000002FC000002DC0000090
:1000B0002BC0000029C0000027C0000025C00000A0
:1000C00023C0000021C000001FC000001DC00000B0
:1000D0001BC0000019C0000017C0000015C00000C0
:1000E00013C0000011241FBECFEFD1E2DEBFCDBF91
:1000F00000E00CBF22E0A0E0B2E001C01D92A830F9
:10010000B207E1F79CD0A7C07BCF8FEF80930701A8
:100110001AB88BB90895E9E6F0E0808185608083A4
:1001200008959DB321E030E002C0220F331F8A956D
:10013000E2F7292B2DBB08951F920F920FB60F9255
:1001400011248F939F93499B07C081E090E0909387
:1001500007028093060204C0109207021092060262
:100160009F918F910F900FBE0F901F9018951F9227
:100170000F920FB60F9211248F939F93489B07C045
:1001800081E090E0909305028093040204C01092F5
:100190000502109204029F918F910F900FBE0F9055
:1001A0001F90189580E090E0BCDF81E090E0B9DF1F
:1001B0008091000290910102892B81F580910602C5
:1001C00090910702892B31F08091040290910502F1
:1001D000892B21F581E090E0909301028093000249
:1001E0008091060290910702892B49F480910202C6
:1001F00090910302019690930302809302028091F2
:10020000040290910502892B49F480910202909199
:1002100003020197909303028093020280910602E9
:1002200090910702019751F4809104029091050288
:10023000019721F41092010210920002089578941F
:1002400064DF69DFC8E0D1E0ADDF80910202909108
:0A02500003028883F9CFF894FFCF72
:00000001FF
