S0150000627574746F6E5F6D6F64756C652E737265638E
S113000071C0000081C000007FC000007DC00000FE
S11300107BC0000079C0000077C0000075C00000FC
S113002073C0000071C000006FC000006DC000000C
S11300306BC0000069C0000067C0000065C000001C
S113004063C0000061C000005FC000005DC000002C
S11300505BC0000059C0000057C0000055C000003C
S113006053C0000051C000004FC000004DC000004C
S11300704BC0000049C0000047C0000045C000005C
S113008043C0000041C000003FC000003DC000006C
S11300903BC0000039C0000037C0000035C000007C
S11300A033C0000031C000002FC000002DC000008C
S11300B02BC0000029C0000027C0000025C000009C
S11300C023C0000021C000001FC000001DC00000AC
S11300D01BC0000019C0000017C0000015C00000BC
S11300E013C0000011241FBECFEFD1E2DEBFCDBF8D
S11300F000E00CBF22E0A0E0B2E001C01D92A831F4
S1130100B207E1F78ED090C07BCF1DB88FEF81B9D5
S11301100895DF92EF92FF920F931F93CF93DF9393
S1130120E0E1F2E0A8E0B2E00F2EF0E0EF2EF2E022
S1130130FF2EF02D20E030E001E010E0DD24D39428
S11301408CB1A801022E02C0440F551F0A94E2F795
S11301508423BF018083882381F08FEF97E4019784
S1130160F1F700C000008CB148234083442329F0F8
S11301708C91811102C0E701D8823196EB0188810C
S11301808D932F5F3F4FDFEFED1AFD0A28303105C5
S1130190B9F680910002882321F081E082B910929F
S11301A0000280910102882321F082E082B910923A
S11301B0010280910202882321F084E082B9109226
S11301C0020280910302882321F088E082B9109210
S11301D0030280910402882321F080E182B9109205
S11301E0040280910502882321F080E282B91092F2
S11301F0050280910602882321F080E482B91092DE
S1130200060280910702882321F080E882B91092C7
S11302100702DF91CF911F910F91FF90EF90DF9034
S10F0220089573DF76DFFECFF894FFCF63
S9030000FC
